:020000040000FA
:060000000A128A11D22F42
:100012000434831203132308F3002208F200210898
:10002200F1002008F0000030F7000030F600003048
:10003200F5000030F4000A168A11F7230A128A1119
:10004200031C24282528362883120313240884003D
:1000520083138001840A80010030A3000030A200D3
:100062000030A1000030A00065288312031323088A
:100072007F39FC00FD010310FC0DFD0D24088400F6
:100082007C0883138000840A7D088000220D220DE3
:100092000139FC00FD01240884007C088004840AE4
:1000A2007D0880042408840082308007840F0008C1
:1000B2000318000AFF00FF307F0780008403230833
:1000C20080393F38A300A2130800831203134608A5
:1000D2008039D0004608C7004707D700C51F7228DD
:1000E20073287428571457080319782879288928FF
:1000F200570A031D7D287E2886280030C60000305E
:10010200C5000030C4000030C300C517C6019128E5
:100112000030C6000030C5000030C4000030C3000B
:1001220042088039FF007F08D0064208C70047070F
:10013200D800C11F9D289E289F28581458080319CB
:10014200A328A428B428580A031DA828A928B1283E
:100152000030C2000030C1000030C0000030BF00DB
:10016200C117C201BC280030C2000030C1000030FB
:10017200C0000030BF004208410440043F04031D98
:10018200C328C428DD280030C6000030C500003076
:10019200C4000030C3008030C5047F30C60450085C
:1001A200FF007F08C6044608C2004508C100440893
:1001B200C0004308BF00342A5708031DE128E22883
:1001C200EB280030C2000030C1000030C000003017
:1001D200BF00342A5708C700C8014808CA00580897
:1001E2004702C900031CCA0349087F3ED1004A08DE
:1001F2000318013E003ED2004608CF004508CE005B
:100202004408CD004308CC000030C6000030C500D1
:100212000030C4000030C3000030D6000030D500EA
:100222000030D4000030D300D801612958080319E6
:100232001B291C293C290130C7000310CC0DCD0D10
:10024200CE0DCF0DC70B1E290130C7000310C30D01
:10025200C40DC50DC60DC70B2729D61F312932295A
:10026200332943140130C7000310D30DD40DD50D2B
:10027200D60DC70B352942084F02031D4A294108F2
:100282004E02031D4A2940084D02031D4A293F0818
:100292004C02031C4D294E295D2956173F08CC02FA
:1002A2004008031C400FCD024108031C410FCE023F
:1002B2004208031C420FCF020130FF007F08D8071B
:1002C2001A305802031C6629672917294F084E0461
:1002D2004D044C0403196E296F298E2953148E295B
:1002E2000130C7000310C30DC40DC50DC60DC70BE9
:1002F2007329D61F7D297E297F2943140130C70027
:100302000310D30DD40DD50DD60DC70B8129FF30A7
:10031200D1070318D20AFF30D207C51F91299229AB
:100322007129D801D61F96299729B329FF30530581
:10033200C700FF305405C800FF305505C9007F30A3
:100342005605CA004A084904480447040319AA2961
:10035200AB29AE29D801D80AB329431CB129B22945
:10036200B329AB2958080319B729B829E92901305B
:10037200C307003003180130C407003003180130EE
:10038200C507003003180130C607461CC929CA290F
:10039200E9294308C7004408C8004508C9004608BF
:1003A200CA000130CB004A0DCA0CC90CC80CC70CDC
:1003B200CB0BD4294A08C6004908C5004808C40026
:1003C2004708C3000130D1070318D20A0030D20710
:1003D2005208803AFF0080307F02031DF229FF306D
:1003E2005102031CF529F629042AFF308312031354
:1003F200D1000030D2000030C6000030C50000300D
:10040200C4000030C300831203135208803AFF0075
:1004120080307F02031D0F2A013051020318122A75
:10042200132A202A83120313D101D2010030C600FD
:100432000030C5000030C4000030C300D001831278
:1004420003135108D700571C272A282A2A2AC5171E
:100452002E2A7F30FF007F08C5055708C70003100A
:10046200470CC600D0280800831203135C088039A9
:10047200E9005C08E1006107EB00DB1F412A422A28
:10048200432A6B146B080319472A482A582A6B0A15
:10049200031D4C2A4D2A552A0030DC000030DB00B7
:1004A2000030DA000030D900DB17DC01602A0030AE
:1004B200DC000030DB000030DA000030D9006008D8
:1004C2008039EA006A0869060319682A692A6A2AD1
:1004D20069176008E1006107EA00DF1F712A722ACA
:1004E200732A6A146A080319772A782A882A6A0AF8
:1004F200031D7C2A7D2A852A0030E0000030DF00BF
:100502000030DE000030DD00DF17E001902A00300D
:10051200E0000030DF000030DE000030DD006B085C
:100522006A020318952A962ABC2A691F992A9A2ACE
:100532009E2A8030FF007F08E9066B08EC006A08FB
:10054200EB006C08EA005908EC005D08D9006C0861
:10055200DD005A08EC005E08DA006C08DE005B0879
:10056200EC005F08DB006C08DF005C08EC00600850
:10057200DC006C08E000EC016A08E100E2016208BC
:10058200E4006B086102E300031CE4036408803AA0
:10059200FF0080307F02031DD02A1A306302031C41
:1005A200D32AD42A0B2B831203135C085B045A044C
:1005B2005904031DDD2ADF2A0130E02A0030EC0055
:1005C2000030DC000030DB000030DA000030D900FF
:1005D2006A08EB00132B6C1CEF2AF02AF72A6C082E
:1005E200E1000310610C0138EC00F92A0310EC0C55
:1005F200591CFC2AFD2AFE2AEC170130E1005C0D91
:10060200DC0CDB0CDA0CD90CE10B002B0130FF0007
:100612007F08EB07831203136A086B02031C122B79
:10062200132BEC2A691B162B172B602B6B08031D4F
:100632001B2B1C2B252B0030DC000030DB00003094
:10064200DA000030D9008C2C5D08D9075E0803114E
:100652000318013E03192E2BDA075F080311031852
:10066200013E0319352BDB07600803110318013E15
:1006720003193C2BDC075C1C3F2B402B142C6C1CFD
:10068200432B442B4B2B6C08E1000310610C013807
:10069200EC004D2B0310EC0C591C502B512B522B00
:1006A200EC170130E1005C0DDC0CDB0CDA0CD90C30
:1006B200E10B542B0130FF007F08EB07142C5C0880
:1006C200803AFF006008803A7F02031D722B5F08A8
:1006D2005B02031D722B5E085A02031D722B5D081A
:1006E20059020318752B762BCE2BFF30E100FF3019
:1006F200E200FF30E300FF30E4005D08E5005E0841
:10070200E6005F08E7006008E8005908E5025A08B9
:10071200031C5A0F8D2B8E2BE6025B08031C5B0F0A
:10072200932B942BE7025C08031C5C0F992B9A2BEA
:10073200E8026508E10766080318660FA12BA22BE1
:10074200E20767080318670FA72BA82BE3076808BF
:100752000318680AE4076408DC006308DB00620827
:10076200DA006108D9008030FF007F08E906EC0951
:10077200EC0A6C08031DBE2BBF2BDC2B0130D90702
:10078200003003180130DA07003003180130DB07AC
:10079200003003180130DC07DC2B5D08D9025E084B
:1007A200031C5E0FDA025F08031C5F0FDB026008A6
:1007B200031C600FDC025C085B045A045904031D2D
:1007C200E32BE42B102C6C08031DE82BE92B102CD7
:1007D2000030DC000030DB000030DA000030D900ED
:1007E2008C2C0130E1000310D90DDA0DDB0DDC0D8C
:1007F200E10BF42BEC1FFE2BFF2B002C59146C1C6D
:10080200032C042C072C0314EC0D092C0310EC0D03
:100812006B0803190D2C0E2C102C0130EB02DB1F80
:10082200132C142CF22BEA01EC1F182C192C272C58
:100832006C087F3903191E2C1F2C222CEA01EA0AAC
:10084200272C591C252C262C272C1F2C6A0803190F
:100852002B2C2C2C602C0130D907003003180130CE
:10086200DA07003003180130DB07003003180130CB
:10087200DC075C1C3D2C3E2C602C5908E1005A0818
:10088200E2005B08E3005C08E4000130E500640D6F
:10089200E40CE30CE20CE10CE50B482C6408DC00F0
:1008A2006308DB006208DA006108D9006B0A0319E9
:1008B2005B2C5C2C602C0130FF007F08EB076B0A7D
:1008C2000319642C652C6A2C6B08031D692C6A2C95
:1008D200782C0030DC000030DB000030DA00003021
:1008E200D9006B08031D762C772C782CE9016B1C40
:1008F2007B2C7C2C7E2CDB17822C7F30FF007F0828
:10090200DB056B08E1000310610CDC00E91F8A2C97
:100912008B2C8C2CDC1708008312031328088039D7
:10092200B2002808AD002D07B800A71F992C9A2CF9
:100932009B2C3814380803199F2CA02CAF2C380A92
:10094200031DA42CA52CAD2C0030A8000030A7005C
:100952000030A6000030A500A717B72C0030A80071
:100962000030A7000030A6000030A5002C08803916
:10097200FF007F08B2062C08AD002D07B300AB1FA5
:10098200C32CC42CC52C331433080319C92CCA2C0C
:10099200D92C330A031DCE2CCF2CD72C0030AC001F
:1009A2000030AB000030AA000030A900AB17E12CE8
:1009B2000030AC000030AB000030AA000030A900CB
:1009C20033080319E52CE62CEB2C3808031DEA2C1E
:1009D200EB2CF42C0030A8000030A7000030A60059
:1009E2000030A500D12F2508F0002B080A168A1125
:1009F2003B220A128A11710883120313BE00700887
:100A0200BD003D08AD00AE01AF01B0013008B70036
:100A12002F08B6002E08B5002D08B4003E08AD0020
:100A2200AE01AF01B0013008BC002F08BB002E0898
:100A3200BA002D08B9002608F0002A080A168A1101
:100A42003B220A128A11710883120313BE00700836
:100A5200BD003D08AD00AE01AF01B0012D08B407E5
:100A62002E0803110318013E0319382DB5072F086C
:100A720003110318013E03193F2DB6073008031175
:100A82000318013E0319462DB7073E08AD00AE011B
:100A9200AF01B0012D08B9072E0803110318013E5A
:100AA2000319542DBA072F0803110318013E031925
:100AB2005B2DBB07300803110318013E0319622D99
:100AC200BC072708F00029080A168A113B220A12DD
:100AD2008A11710883120313BE007008BD003D081D
:100AE200AD00AE01AF01B0012D08B4072E0803110D
:100AF2000318013E03197E2DB5072F0803110318B1
:100B0200013E0319852DB607300803110318013E73
:100B120003198C2DB7073E08AD00AE01AF01B0013D
:100B22002D08B9072E0803110318013E03199A2D47
:100B3200BA072F0803110318013E0319A12DBB07A1
:100B4200300803110318013E0319A82DBC07083011
:100B5200AD000310B40DB50DB60DB70DAD0BAA2D3A
:100B62002608F00029080A168A113B220A128A1165
:100B7200710883120313BE007008BD003D08AD006A
:100B82003E08AE00AF01B0012D08B4072E080311D4
:100B92000318013E0319CE2DB5072F0803110318C0
:100BA200013E0319D52DB607300803110318013E83
:100BB2000319DC2DB7072508F0002A080A168A1146
:100BC2003B220A128A11710883120313BE007008B5
:100BD200BD003D08AD003E08AE00AF01B0012D08DA
:100BE200B4072E0803110318013E0319F92DB507A6
:100BF2002F0803110318013E0319002EB60730080F
:100C020003110318013E0319072EB7070830AD0080
:100C12000310B40DB50DB60DB70DAD0B092E250899
:100C2200F00029080A168A113B220A128A11710859
:100C320083120313BE007008BD003D08AD003E08DC
:100C4200AE00AF01B0012D08B4072E08031103183E
:100C5200013E03192D2EB5072F0803110318013E7B
:100C62000319342EB607300803110318013E031985
:100C72003B2EB7072608F0002B080A168A113B22E2
:100C82000A128A11710883120313BE007008BD0094
:100C92003D08AD003E08AE00AF01B0012D08B90716
:100CA2002E0803110318013E0319582EBA072F0804
:100CB20003110318013E03195F2EBB07300803110D
:100CC2000318013E0319662EBC072708F0002A0804
:100CD2000A168A113B220A128A117108831203131F
:100CE200BE007008BD003D08AD003E08AE00AF0179
:100CF200B0012D08B9072E0803110318013E03198C
:100D0200832EBA072F0803110318013E03198A2EF6
:100D1200BB07300803110318013E0319912EBC07CB
:100D22002708F0002B080A168A113B220A128A11A0
:100D3200710883120313BE007008BD003D08AD00A8
:100D42003E08AE00AF01B00108300310AD0DAE0D8C
:100D5200AF0DB00DFF3E031DA62E2D08B9072E08BC
:100D620003110318013E0319B72EBA072F08031106
:100D72000318013E0319BE2EBB07300803110318E6
:100D8200013E0319C52EBC073408AD003508AE007C
:100D92003608AF003708B00018300310B00CAF0CA3
:100DA200AE0CAD0CFF3E031DCE2E2D08B9072E084A
:100DB20003110318013E0319DF2EBA072F0803118E
:100DC2000318013E0319E62EBB073008031103186E
:100DD200013E0319ED2EBC070830AD000310B40D1F
:100DE200B50DB60DB70DAD0BEF2E38083307AD00BC
:100DF200AE01AE0D2D08823EBD002E080318013E45
:100E0200FF3EBE00212F0130AD000310B90DBA0D17
:100E1200BB0DBC0DAD0B062FB71F102F112F122FBC
:100E220039140130AD000310B40DB50DB60DB70D78
:100E3200AD0B142FFF30BD070318BE0AFF30BE07EB
:100E4200BB1F242F252F042FB301B71F292F2A2FB1
:100E5200462FFF303405AD00FF303505AE00FF30C0
:100E62003605AF007F303705B00030082F042E045E
:100E72002D0403193D2F3E2F412FB301B30A462FF4
:100E8200391C442F452F462F3E2F330803194A2F72
:100E92004B2F7C2F0130B907003003180130BA07FD
:100EA200003003180130BB07003003180130BC07C3
:100EB2003C1C5C2F5D2F7C2F3908AD003A08AE0038
:100EC2003B08AF003C08B0000130B100300DB00C5F
:100ED200AF0CAE0CAD0CB10B672F3008BC002F0865
:100EE200BB002E08BA002D08B9000130BD07031857
:100EF200BE0A0030BE073E08803AFF0080307F0203
:100F0200031D852FFF303D02031C882F892F942F4C
:100F12007F3083120313BC008030BB000030BA0064
:100F22000030B900C52F831203133E08803AFF0038
:100F320080307F02031D9F2F01303D020318A22F34
:100F4200A32FAF2F003083120313BC000030BB006D
:100F52000030BA000030B900B201C52F831203136A
:100F62003D08B800FF30B905FF30BA057F30BB0538
:100F72000030BC05381CBE2FBF2FC02FBB1738084E
:100F8200AD0003102D0CBC003208FF007F08BC042A
:100F92003C08A8003B08A7003A08A6003908A500AB
:100FA20008008317B130FD001130FE009430FF00BD
:100FB200A13084000A168A11A8210A128A11831606
:100FC20003130A128A1109200A128A11E7009030CB
:100FD2008400A1300A168A1161210A128A11831330
:100FE200D6308400E7300A168A1161210A128A116A
:100FF20083120313EF0183010A168A11942EFF1B39
:101002000A2883137F1883170008840A0319FF0A2A
:10101200080008308A000408840A82070034013478
:1010220000340A34003464340034E83403341034B5
:1010320027340034003400340034C434FF347F34A5
:101042003F348034EF34FF34BE349034E134A93479
:101052003E34EC3482347634BE348234AD342B34B4
:101062003E340E343C34C334BD348734D13413346B
:101072003D3441347834D334BB34313435343934AB
:1010820038340034533449345334543445344D34B1
:101092004134203442344C344F3451345534453485
:1010A200413444344F3420345E342D345E340034C1
:1010B20043346C34613476346534203449346E34CC
:1010C20063346F347234723465346334743461342B
:1010D20020343A3443340034693472343D34253494
:1010E20064342C3468346C343D34253464342C3408
:1010F2006D3474343D3425346434003443346C34F8
:10110200613476346534203443346F34723472344B
:10111200653463347434613420343A3444340034F2
:1011220041346C34613472346D34203441346D3462
:101132006234203441346334743469347634003494
:101142004D344F344E3449345434203441344D34C8
:101152004234493445344E34543441344C340034EE
:1011620054343D34253464342C34463467343D34AD
:10117200253464342C3446343D342534643400340C
:1011820041346C34613472346D346134203441340E
:1011920063347434693476346134643461340034D1
:1011A2004D344F344E34493454344F345234453430
:1011B2004F3420344E344F345234003449344E3498
:1011C20047345234453453344534203443344C3458
:0811D200413456344534003469
:1011DC00F001831203138718F428F528F728F0017F
:1011EC00F00A0718FA28FB28FD28F001F00A071D61
:1011FC00002901290229F001700808008316031345
:10120C005D08B5005C08B4000A128A15A2260A1201
:10121C008A15831603133508CF003408CE00CD0190
:10122C004F08803AFF0080307F02031D1F291E30BB
:10123C004E02031C22292329BA29F5019230F6000B
:10124C008030F70000300A168A1115220A128A150E
:10125C00153083160313CC004B30CB00BD30CA00C5
:10126C00CA0B3629CB0B3629CC0B36293D2900303D
:10127C00F000F1000A168A11CD210A128A157108A4
:10128C0083160313DD007008DC000130F000003021
:10129C00F1000A168A11CD210A128A1571088316DB
:1012AC000313DB007008DA000430F0000030F100AA
:1012BC000A168A11CD210A128A1571088316031396
:1012CC00D9007008D800A23083120313A000831633
:1012DC0003134F0883120313A200831603134E0843
:1012EC0083120313A10083160313590883120313EB
:1012FC00A40083160313580883120313A300831648
:10130C0003135B0883120313A600831603135A08F6
:10131C0083120313A50090300A128A156A240A124C
:10132C008A15F5019030F6000130F70001300A16ED
:10133C008A1115220A128A15153083160313CC0054
:10134C004B30CB00BD30CA00CA0BAA29CB0BAA2943
:10135C00CC0BAA29B1290A168A1184210A128A15E2
:10136C0083160313CD01CD0A831603134D08080011
:10137C00831603132508A70001300310A70DFF3EA9
:10138C00031DC3290310270D240784000A128A1594
:10139C000A200A128A15A8000A128A150A200A12B3
:1013AC008A15A9000A128A150A200A128A15AA009F
:1013BC000A128A150A200A128A15AB002B08AF00F4
:1013CC002A08AE002908AD002808AC00892AFF3095
:1013DC00A5070318A60AFF30A6072508A7000130A9
:1013EC000310A70DFF3E031DF6290310270D24073C
:1013FC0084000A128A150A200A128A15A8000A12F9
:10140C008A150A200A128A15A9000A128A150A20BE
:10141C000A128A15AA000A128A150A200A128A15BB
:10142C00AB002B0883120313DC00831603132A086A
:10143C0083120313DB00831603132908831203138F
:10144C00DA0083160313280883120313D9008316BA
:10145C0003132F0883120313A800831603132E08FB
:10146C0083120313A700831603132D08831203138F
:10147C00A600831603132C0883120313A5008316EE
:10148C000313230883120313AC00831603132208DF
:10149C0083120313AB008316031321088312031367
:1014AC00AA0083160313200883120313A9000A123F
:1014BC008A118D240A128A15831203132808E0005E
:1014CC002708DF002608DE002508DD000A128A1135
:1014DC0035220A128A15831203135C088316031330
:1014EC00AF00831203135B0883160313AE00831241
:1014FC0003135A0883160313AD0083120313590800
:10150C0083160313AC0025082604031D8E2A8F2A8C
:10151C00ED292F08A3002E08A2002D08A1002C08ED
:10152C00A000080020308400A130F0000408F10075
:10153C001030F2007008840083170008F300F00AE2
:10154C0071088400831373088000F10AF20BA02A3F
:10155C0083120313B001B101B201831203133108DA
:10156C003204031DBA2ABB2AE02AFE308600423020
:10157C00F000F00BBF2A0000C52A2008B00083122F
:10158C000313061ECA2ACB2AC32ACE2A2108B0006E
:10159C00861ED12AD22ACC2AD52A2208B000061FB0
:1015AC00D82AD92AD32ADC2A2308B000861FDF2A9E
:1015BC00E02ADA2A31033204031DE52AE62A0B2B32
:1015CC00FD3086004230F000F00BEA2A0000F02AD1
:1015DC002408B00083120313061EF52AF62AEE2AFD
:1015EC00F92A2508B000861EFC2AFD2AF72A002BB2
:1015FC002608B000061F032B042BFE2A072B2708F6
:10160C00B000861F0A2B0B2B052B0230310632043F
:10161C00031D112B122B372BFB3086004230F000B0
:10162C00F00B162B00001C2B2808B00083120313A0
:10163C00061E212B222B1A2B252B2908B000861EC7
:10164C00282B292B232B2C2B2A08B000061F2F2BE1
:10165C00302B2A2B332B2B08B000861F362B372B25
:10166C00312B033031063204031D3D2B3E2B632BF3
:10167C00F73086004230F000F00B422B0000482B74
:10168C002C08B00083120313061E4D2B4E2B462B39
:10169C00512B2D08B000861E542B552B4F2B582B3D
:1016AC002E08B000061F5B2B5C2B562B5F2B2F08D4
:1016BC00B000861F622B632B5D2B0130B107031822
:1016CC00B20A0030B2073208803AFF0080307F0245
:1016DC00031D722B04303102031C752B762BB32A9D
:1016EC00831203133008080083120313B3010A1684
:1016FC008A1184210A128A158316031367080319A9
:10170C00882B892B672CF501D030F6008030F70040
:10171C0000300A168A1115220A128A15C0300A16D0
:10172C008A118C220A128A150A128A1598220A1218
:10173C008A1583120313B40034080319A62BA72BA4
:10174C00B92B2A300A168A11C2220A128A15831260
:10175C0003136F08E23E84003408831380000130C9
:10176C00FF007F08EF070230FC000430FB00BA30AA
:10177C00FA00FA0BBF2BFB0BBF2BFC0BBF2B000093
:10178C000430831203136F02031CCD2BCE2B9A2B28
:10179C002F30F0000430F1000030F200E2300A1675
:1017AC008A11B1230A128A1570087104031DDF2BEC
:1017BC00E02B142C0A168A1184210A128A15F501C1
:1017CC007030F6008030F70000300A168A111522AE
:1017DC000A128A15F001F00AF10100300A168A117A
:1017EC00B7210A128A150B30FC002630FB005D3045
:1017FC00FA00FA0BFF2BFB0BFF2BFC0BFF2B062C21
:10180C00F001F10100300A168A11B7210A128A156B
:10181C0083120313B301B30AEF015B2C0A168A116E
:10182C0084210A128A15F5014A30F6008030F7003F
:10183C0000300A168A1115220A128A15F001F101DC
:10184C00F10A00300A168A11B7210A128A150B30D8
:10185C00FC002630FB005D30FA00FA0B332CFB0B3E
:10186C00332CFC0B332C3A2CF001F10100300A160E
:10187C008A11B7210A128A150A168A1184210A12B2
:10188C008A1583120313EF011530FC004B30FB005B
:10189C00BE30FA00FA0B502CFB0B502CFC0B502CCE
:1018AC000000013083160313E70283160313670845
:1018BC00031D612C622C672C023083120313B300BE
:1018CC00EF0183123308080083120313B100AC013B
:1018DC00AD012130AA00432D253032060319772C97
:1018EC00782C882C31088400320883178000013052
:1018FC00FF007F08B1070130AC070318AD0A0030B8
:10190C00AD07432DAB010130A007FF302007840049
:10191C000A128A150A200A128A15B200A700A80119
:10192C002808003A03199B2C432D2708003A031969
:10193C00532D643A0319A62C0D3A0319A62C432DEA
:10194C002A08840083130008AF00840A0008B00042
:10195C000230FF007F08AA07B01FB52CB62CBF2C95
:10196C000330FF007F08AB04AF09B009AF0A0319BD
:10197C00B00AB201B20A3208A7002707013E840060
:10198C000A128A150A200A128A15A8000A128A1548
:10199C000A200A128A15A90029083002031DD82C26
:1019AC0028082F020318DB2CDC2CDD2CE72C013053
:1019BC00FF007F08B20705303206031DE62CE72C2A
:1019CC00C12C2B0803390319EC2CED2CFC2C310801
:1019DC0084002D30831780000130FF007F08B10791
:1019EC000130AC070318AD0A0030AD073208AE0069
:1019FC003A2D0A30F7000030F8002E08A700270710
:101A0C00013E84000A128A150A200A128A15F00077
:101A1C000A128A150A200A128A15F1003008F300FE
:101A2C002F08F2000A168A116D230A128A15710802
:101A3C00FA007008F9000A168A11F8220A128A159F
:101A4C007708303E83120313B20031088400320849
:101A5C00831780000130FF007F08B1070130AC070D
:101A6C000318AD0A0030AD07FF30FF007F08AE074A
:101A7C002E0A031D422D432DFF2C0130A007FF30F1
:101A8C00200784000A128A150A200A128A15B2004D
:101A9C003208031D522D532D722C310884008317EC
:101AAC0080012D08A1002C08A00008008316031348
:101ABC003308F3003208F2003108F1003008F0006E
:101ACC000030F7000030F6000030F5000030F40074
:101ADC000A168A11F2250A128A150318762D772D0B
:101AEC00862D213083160313D6000030D70000302A
:101AFC00B3000030B2000030B1000030B000A12EB5
:101B0C00831603133308F3003208F2003108F10096
:101B1C003008F0000030F7000030F6000030F5001F
:101B2C000030F4000A168A11F7230A128A15031CD6
:101B3C00A02DA12DB02D223083160313D60000301A
:101B4C00D7000030B3000030B2000030B1000030DC
:101B5C00B000A12EBF3083120313DC008030DB00F9
:101B6C000030DA000030D9004030A8000030A70067
:101B7C000030A6000030A5006D30A40083160313BE
:101B8C00330883120313A300831603133208831242
:101B9C000313A20083160313310883120313A1004D
:101BAC0083160313300883120313A0000A128A1140
:101BBC000A200A128A15831203132308AC00220888
:101BCC00AB002108AA002008A9000A128A118D2452
:101BDC000A128A15831203132808E0002708DF0075
:101BEC002608DE002508DD000A128A1135220A12A9
:101BFC008A15831203135C0883160313B300831234
:101C0C0003135B0883160313B200831203135A08E1
:101C1C0083160313B100831203135908831603139D
:101C2C00B000FF3083120313ED070318EE0AFF30E8
:101C3C00EE07831603133308A3003208A200310801
:101C4C00A1003008A0000B30A4000830A500003023
:101C5C00A6000A128A15BE210A128A1583160313CE
:101C6C002308B3002208B2002108B1002008B000FC
:101C7C00330883120313DC00831603133208831218
:101C8C000313DB0083160313310883120313DA00EA
:101C9C0083160313300883120313D9003F30A800B6
:101CAC003130A7007230A6001830A5006D08F00086
:101CBC006E08F1000030F11BFF30F200F300013030
:101CCC000A168A1148270A128A15730883120313FD
:101CDC00AC007208AB007108AA007008A9000A12C7
:101CEC008A118D240A128A15831203132808E00026
:101CFC002708DF002608DE002508DD000A128A11FD
:101D0C0035220A128A15831203135C0883160313F7
:101D1C00B300831203135B0883160313B200831200
:101D2C0003135A0883160313B100831203135908C3
:101D3C0083160313B0000800831603133408063E01
:101D4C00B60035080318013EFF3EB700B801B71BBB
:101D5C00B8033808B900C13083120313DC002030FB
:101D6C00DB000030DA000030D90083160313390889
:101D7C00F3003808F2003708F1003608F0000130A3
:101D8C000A168A1148270A128A157308831203133C
:101D9C00C2007208C1007108C0007008BF00463054
:101DAC00C6002030C5002830C4000030C3000A1221
:101DBC008A1166200A128A15831203134208E00066
:101DCC004108DF004008DE003F08DD000A128A11DE
:101DDC0035220A128A15831203135C088316031327
:101DEC00C100831203135B0883160313C000831214
:101DFC0003135A0883160313BF00831203135908E5
:101E0C0083160313BE00413083120313C20020302B
:101E1C00C1000030C0000030BF008316031341081E
:101E2C0083120313C6008316031340088312031393
:101E3C00C500831603133F0883120313C4008316D3
:101E4C0003133E0883120313C3000A128A1166207F
:101E5C000A128A1583120313420883160313B30064
:101E6C0083120313410883160313B2008312031366
:101E7C00400883160313B100831203133F08831623
:101E8C000313B0000A128A155C250A128A158316F0
:101E9C0003133308C5003208C4003108C3003008EE
:101EAC00C200413083120313DC005B30DB0098303E
:101EBC00DA00EA30D90083160313450883120313A2
:101ECC00E00083160313440883120313DF00831608
:101EDC000313430883120313DE0083160313420813
:101EEC0083120313DD000A128A1135220A128A1595
:101EFC00831203135C08C2005B08C1005A08C000BF
:101F0C005908BF004530C6007F30C500A030C40062
:101F1C000030C3000A128A1166200A128A15831235
:101F2C000313420883160313C900831203134108D9
:101F3C0083160313C800831203134008831603137C
:101F4C00C700831203133F0883160313C600C33064
:101F5C0083120313DC008830DB008030DA000030A1
:101F6C00D90083160313490883120313E000831668
:101F7C000313480883120313DF0083160313470867
:101F8C0083120313DE008316031346088312031314
:101F9C00DD000A128A1135220A128A1583120313E4
:101FAC005C0883160313BD00831203135B088316AE
:101FBC000313BC00831203135A0883160313BB00CC
:101FCC0083120313590883160313BA003D08F30058
:101FDC003C08F2003B08F1003A08F0000A168A119E
:101FEC00ED240A128A15710883160313B5007008C4
:041FFC00B400080025
:1022C20064008001840A04060319003404066229AA
:1022D200831603139F131F129F12831203131F08E7
:1022E2003F3940389F000800F030FF007F08831616
:1022F20003138605F030FF007F08860481138316DE
:1023020003178901080001300A168A118C220A1665
:102312008A110830F400C930F300F30B8E29F40B54
:102322008E29932908003134323433344134343421
:1023320035343634423437343834393443342A3439
:102342003034233444347E088A007F0882000A161F
:102352008A11A4210A168A118000840A04087D06C3
:1023620003190034FF0A0319FE0AA829F200831692
:1023720003138901720C83120313031C091003183F
:102382000914700C031C891003188914710C031CA6
:10239200091103180915080070080F39F200F20D2F
:1023A200F20D831203131F087206C33972069F00CF
:1023B2001F141330F200F20BDC29DF2983120313FE
:1023C2009F149F18E529E629E2291F101E08F20032
:1023D200F3017208F0007308F1000800042A74087F
:1023E200FF00730884000A128A1500200A168A1157
:1023F2000A168A11C2220A168A110130F30703183B
:10240200F40A0030F407740883120313FF00730800
:1024120084000A128A1500200A168A11003A031D46
:10242200132A142AF0290800F8000230780203184F
:102432001B2A1C2A272A75080F398038F9007908C7
:102442000A168A118C220A168A11312A75080F3946
:10245200C038F90079080A168A118C220A168A11E4
:102462007608F3007708F4000A168A11EF210A169B
:102472008A110800F800F401F5017008F200F30176
:102482007208F6007308F700781C482A492A4F2A76
:102492007608F4070318F50A7708F50701300310E8
:1024A200F60DF70DFF3E031D502A0310F80C7808B5
:1024B200031D5C2A5D2A452A7508F1007408F000A4
:1024C20008008316031388012730F400F530F30067
:1024D200F30B692AF40B692A02300A168A118C223C
:1024E2000A168A1128300A168A118C220A168A11B3
:1024F20001300A168A118C220A168A110C300A1629
:102502008A118C220A168A1106300A168A118C2226
:102512000A168A110800F200F0307205F0008312E8
:10252200031308080F39700488000810881400008B
:102532008312031388100330F1009730F000F00B80
:10254200A02AF10BA02AA52A7208F0000430031079
:10255200F00DFF3E031DA82A8312031308080F394A
:102562007004880088140000831203138810083056
:10257200F100C930F000F00BBC2AF10BBC2AC12AD1
:102582000800F200F0307205F0008312031308080D
:102592000F39700488000814881400008312031392
:1025A20088100330F1009730F000F00BD62AF10BBF
:1025B200D62ADB2A7208F00004300310F00DFF3E29
:1025C200031DDE2A8312031308080F3970048800E2
:1025D200881400008312031388100830F100C930F8
:1025E200F000F00BF22AF10BF22AF72A0800770822
:1025F20078040319FD2AFE2A2D2BFB01FB0A0C2B62
:1026020001300310F70DF80DFF3E031D022B0130C0
:10261200FF007F08FB07F81F0F2B102B012B7808F8
:102622007A02031D162B77087902031C192B1A2B29
:10263200202B7708F9027808031CFA03FA0201300A
:102642000310F80CF70CFF3E031D212B0130FB0297
:10265200031D2C2B2D2B102B7A08F8007908F7007C
:1026620008000A168A1184210A168A11F5013430EB
:10267200F6008030F70000300A168A1115220A1679
:102682008A11F001F10101300A168A11B7210A16E6
:102692008A110630FC001330FB00AD30FA00FA0B51
:1026A200502BFB0B502BFC0B502B572BF001F10145
:1026B20000300A168A11B7210A168A110B30FC0063
:1026C2002630FB005D30FA00FA0B652BFB0B652B05
:1026D200FC0B652B6C2B0800F401F50170087104EA
:1026E2000319742B752BAC2BF601F60A832B0130E0
:1026F2000310F00DF10DFF3E031D792B0130FF0099
:102702007F08F607F11F862B872B782B01300310E9
:10271200F40DF50DFF3E031D882B71087302031D96
:10272200942B70087202031C972B982B9F2B700816
:10273200F2027108031CF303F30274140130031054
:10274200F10CF00CFF3E031DA02B0130F602031D1D
:10275200AB2BAC2B872B7508F1007408F000080036
:10276200F500E62B75088400831300080319BA2BC1
:10277200BB2BCB2B700884000A128A150A200A167A
:102782008A11F30075088400000873060319CA2B26
:10279200CB2BDE2B700884000A128A150A200A1637
:1027A2008A11F300750884000008F40073087402AB
:1027B200F000F101031CF103F62B0130FF007F084A
:1027C200F5070130FF007F08F0070130F102003009
:1027D200031CF203F202710A031DF32B720A031D9A
:1027E200F32BF42BB32BF001F1010800003070053C
:1027F200F80000307105F90080307205FA007F3070
:102802007305FB007B087A0479047804031D0A2C03
:102812000B2C132C0030F3000030F2000030F100DA
:102822000030F00000307405F80000307505F90042
:1028320080307605FA007F307705FB007B087A044A
:1028420079047804031D262C272C2F2C0030F70046
:102852000030F6000030F5000030F400770873060F
:10286200031D3D2C76087206031D3D2C750871066A
:10287200031D3D2C740870060319402C412C432C77
:102882000310442C0314080083120313A001A101B6
:10289200F501B230F6008030F70000300A168A11D6
:1028A20015220A168A11F001F10101300A168A1165
:1028B200B7210A168A110630FC001330FB00AD3036
:1028C200FA00FA0B622CFB0B622CFC0B622C692CBB
:1028D200F001F10100300A168A11B7210A168A1195
:1028E2000630FC001330FB00AD30FA00FA0B772CF7
:1028F200FB0B772CFC0B772C7E2C0A168A11842179
:102902000A168A11013083120313A0070318A10AC1
:102912000030A1072108803AFF0080307F02031DAA
:10292200942C05302002031C972C982C492C08006B
:1029320083120313A001A101F5018230F600803059
:10294200F70000300A168A1115220A168A11F001C0
:10295200F10101300A168A11B7210A168A110630CE
:10296200FC001330FB00AD30FA00FA0BB62CFB0B67
:10297200B62CFC0BB62CBD2CF001F10100300A166E
:102982008A11B7210A168A110630FC001330FB00A7
:10299200AD30FA00FA0BCB2CFB0BCB2CFC0BCB2C67
:1029A200D22C0A168A1184210A168A110130831246
:1029B2000313A0070318A10A0030A1072108803AD7
:1029C200FF0080307F02031DE82C05302002031C2B
:1029D200EB2CEC2C9D2C08000310720D730DF900EA
:1029E2007908031DF52CF62CFF2C0030F300003083
:1029F200F2000030F1000030F000622D7008F400A7
:102A02007108F5007208F6007308F7001F30031012
:102A1200F70CF60CF50CF40CFF3E031D082D7408A0
:102A2200F800F217FF30F005FF30F105FF30F20534
:102A32000030F3059630F902F91F202D212D3B2D90
:102A42007908803A973E0318272D282D292DF62C38
:102A520001300310F30CF20CF10CF00CFF3E031DDD
:102A62002A2D0130FF007F08F907031D392D3A2D69
:102A7200292D522D20307902031C402D412D4D2D40
:102A8200F62C0130F4000310F00DF10DF20DF30DF0
:102A9200F40B442D0130F9027908031D512D522DFA
:102AA200422D78080319562D572D622DF009F10990
:102AB200F209F309F00A0319F10A0319F20A0319D8
:102AC200F30A0800FC010030831203138718013057
:102AD20083160313E000003083120313071801303A
:102AE20083160313DF00003083120313071901302A
:102AF20083160313DE000A128A15EE200A168A11C3
:102B0200003A031D852D862DF02DF501C230F60009
:102B12008030F70000300A168A1115220A168A112F
:102B2200153083120313B5004B30B400BD30B3002F
:102B3200B30B992DB40B992DB50B992DA02D0A1617
:102B42008A1184210A168A115E3083120313A000AF
:102B520083160313600883120313B300B40133080E
:102B6200A1003408A200831603135F088312031323
:102B7200B500B6013508A3003608A4008316031376
:102B82005E0883120313B700B8013708A50038089E
:102B9200A60090300A128A156A240A168A11F501D3
:102BA2009030F6000130F70000300A168A11152223
:102BB2000A168A110B3083120313B5002630B400B3
:102BC2005D30B300B30BE32DB40BE32DB50BE32D56
:102BD2000A168A1184210A168A11FC01FC0A7C0851
:102BE200080000307005F80000307105F9008030EF
:102BF2007205FA007F307305FB007B087A047904C2
:102C02007804031D052E062E0E2E0030F300003030
:102C1200F2000030F1000030F00000307405F800DE
:102C220000307505F90080307605FA007F307705AF
:102C3200FB007B087A0479047804031D212E222EDE
:102C42002A2E0030F7000030F6000030F500003088
:102C5200F400F31F2D2E2E2E522E0030F8000030DD
:102C6200F9000030FA008030FB007008F8027108A9
:102C7200031C710F3D2E3E2EF9027208031C720FC7
:102C8200432E442EFA027308031C730F492E4A2E58
:102C9200FB027B08F3007A08F2007908F100780859
:102CA200F000F71F552E562E7A2E0030F800003015
:102CB200F9000030FA008030FB007408F802750851
:102CC200031C750F652E662EF9027608031C760F1B
:102CD2006B2E6C2EFA027708031C770F712E722E60
:102CE200FB027B08F7007A08F6007908F5007808FD
:102CF200F4008030F3068030F70677087302031D74
:102D02008C2E76087202031D8C2E75087102031D2B
:102D12008C2E7408700203188F2E902E922E0310A0
:102D2200932E031408007130831603138F00880159
:102D320005148514851607308700013083160317A2
:102D420088000A168A1169210A168A110A168A113E
:102D520062220A168A110A168A1175210A168A1126
:102D620083160313E1016108031DB82EB92ED52E77
:102D72000A128A157A230A168A1183160313D500BA
:102D82005503031DC52EC62ECB2E83160313E10158
:102D9200E10AB42E02305506031DD02ED12ED42EB8
:102DA2000330E100B42EB42E03306106031DDA2E87
:102DB200DB2EE12E0A168A1132230A168A11B12E4F
:102DC2006103031DE52EE62EFB2E0A168A116325EA
:102DD2000A168A1183160313D3005303031DF22E1E
:102DE200F32EF62E0430E100B42E023083160313C4
:102DF200E100B42E02306106031D002F012F112FB6
:102E02000A128A1504210A168A1183160313D400A2
:102E12005403031D0D2F0E2FC62E0530E100B42ED4
:102E220005306106031D162F172F2B2F0A168A1144
:102E320099240A168A110B3083160313D200263006
:102E4200D1005D30D000D00B242FD10B242FD20B18
:102E5200242FF62E04306106031D302F312FB42E9D
:102E62000A168A1145240A168A110B308316031397
:102E7200D2002630D1005D30D000D00B3E2FD10BD6
:102E82003E2FD20B3E2FC62E0A128A110028F800BE
:102E9200780803194D2F4E2F622FF31F512F522FF7
:102EA200622F7009FA007109FB007209FC007309B4
:102EB200FD00FA0A0319FB0A0319FC0A0319FD0AA9
:102EC2006A2F7308FD007208FC007108FB0070088D
:102ED200FA007308720471047004031D712F722FBB
:102EE2007B2F0030F3000030F2000030F1000030A0
:102EF200F000FF2F9630F9008B2F0130FF007F0882
:102F0200F90701300310FD0CFC0CFB0CFA0CFF3E20
:102F1200031D832FFE307D05031D902F912F7E2FE1
:102F2200AD2F0130FF007F08F9070130FA070030AA
:102F320003180130FB07003003180130FC07003092
:102F420003180130FD0701300310FD0CFC0CFB0CD3
:102F5200FA0CFF3E031DA52FFF307D05031DB22F86
:102F6200B32F922FBF2F0130F9020130F40003106A
:102F7200FA0DFB0DFC0DFD0DF40BB82FFC1BC22F3F
:102F8200C32FC92F023079020318C82FC92FB42FBB
:102F92007918CC2FCD2FD52FFF30FA05FF30FB0546
:102FA2007F30FC05FF30FD050310F90C7908F400B1
:102FB200F501F601F70118300310F40DF50DF60DC9
:102FC200F70DFF3E031DDD2F7408FA047508FB049C
:102FD2007608FC047708FD0478080319F12FF22F14
:102FE200F72FF31FF52FF62FF72FFD177D08F300AC
:0E2FF2007C08F2007B08F1007A08F00008006D
:04400E00D520FF3F7B
:00000001FF
